{
  "contractName": "Exchange",
  "abi": [
    {
      "constant": true,
      "inputs": [
        {
          "name": "",
          "type": "uint256"
        }
      ],
      "name": "Asks",
      "outputs": [
        {
          "name": "owner",
          "type": "address"
        },
        {
          "name": "price",
          "type": "uint256"
        },
        {
          "name": "amount",
          "type": "uint256"
        },
        {
          "name": "date",
          "type": "uint256"
        }
      ],
      "payable": false,
      "stateMutability": "view",
      "type": "function"
    },
    {
      "constant": true,
      "inputs": [
        {
          "name": "",
          "type": "uint256"
        }
      ],
      "name": "Bids",
      "outputs": [
        {
          "name": "owner",
          "type": "address"
        },
        {
          "name": "price",
          "type": "uint256"
        },
        {
          "name": "amount",
          "type": "uint256"
        },
        {
          "name": "date",
          "type": "uint256"
        }
      ],
      "payable": false,
      "stateMutability": "view",
      "type": "function"
    },
    {
      "inputs": [],
      "payable": true,
      "stateMutability": "payable",
      "type": "constructor"
    },
    {
      "payable": true,
      "stateMutability": "payable",
      "type": "fallback"
    },
    {
      "constant": false,
      "inputs": [],
      "name": "deposit",
      "outputs": [],
      "payable": true,
      "stateMutability": "payable",
      "type": "function"
    },
    {
      "constant": false,
      "inputs": [
        {
          "name": "index",
          "type": "uint256"
        }
      ],
      "name": "getBid",
      "outputs": [
        {
          "name": "",
          "type": "address"
        },
        {
          "name": "",
          "type": "uint256"
        },
        {
          "name": "",
          "type": "uint256"
        },
        {
          "name": "",
          "type": "uint256"
        }
      ],
      "payable": false,
      "stateMutability": "nonpayable",
      "type": "function"
    },
    {
      "constant": false,
      "inputs": [
        {
          "name": "index",
          "type": "uint256"
        }
      ],
      "name": "getAsk",
      "outputs": [
        {
          "name": "",
          "type": "address"
        },
        {
          "name": "",
          "type": "uint256"
        },
        {
          "name": "",
          "type": "uint256"
        },
        {
          "name": "",
          "type": "uint256"
        }
      ],
      "payable": false,
      "stateMutability": "nonpayable",
      "type": "function"
    },
    {
      "constant": false,
      "inputs": [
        {
          "name": "_price",
          "type": "uint256"
        },
        {
          "name": "_amount",
          "type": "uint256"
        },
        {
          "name": "timestamp",
          "type": "uint256"
        }
      ],
      "name": "placeBid",
      "outputs": [
        {
          "name": "",
          "type": "bool"
        }
      ],
      "payable": false,
      "stateMutability": "nonpayable",
      "type": "function"
    },
    {
      "constant": false,
      "inputs": [
        {
          "name": "_price",
          "type": "uint256"
        },
        {
          "name": "_amount",
          "type": "uint256"
        },
        {
          "name": "timestamp",
          "type": "uint256"
        }
      ],
      "name": "placeAsk",
      "outputs": [
        {
          "name": "",
          "type": "bool"
        }
      ],
      "payable": false,
      "stateMutability": "nonpayable",
      "type": "function"
    },
    {
      "constant": false,
      "inputs": [
        {
          "name": "index",
          "type": "uint256"
        }
      ],
      "name": "removeBid",
      "outputs": [
        {
          "name": "",
          "type": "uint256"
        }
      ],
      "payable": false,
      "stateMutability": "nonpayable",
      "type": "function"
    },
    {
      "constant": false,
      "inputs": [
        {
          "name": "index",
          "type": "uint256"
        }
      ],
      "name": "removeAsk",
      "outputs": [
        {
          "name": "",
          "type": "uint256"
        }
      ],
      "payable": false,
      "stateMutability": "nonpayable",
      "type": "function"
    },
    {
      "constant": true,
      "inputs": [],
      "name": "getBidsCount",
      "outputs": [
        {
          "name": "",
          "type": "uint256"
        }
      ],
      "payable": false,
      "stateMutability": "view",
      "type": "function"
    },
    {
      "constant": true,
      "inputs": [],
      "name": "getAsksCount",
      "outputs": [
        {
          "name": "",
          "type": "uint256"
        }
      ],
      "payable": false,
      "stateMutability": "view",
      "type": "function"
    }
  ],
  "bytecode": "0x6080604052610bd7806100136000396000f3006080604052600436106100af576000357c0100000000000000000000000000000000000000000000000000000000900463ffffffff16806328220f35146100b15780633c889e6f146100f2578063542900651461017457806359c8d3471461019f5780635e62be251461022157806363505ae81461027a5780636b42fbaf146102a557806374cd0c4014610327578063b320f459146103a9578063d0e30db0146103ea578063f0e320f2146103f4575b005b3480156100bd57600080fd5b506100dc6004803603810190808035906020019092919050505061044d565b6040518082815260200191505060405180910390f35b3480156100fe57600080fd5b5061011d6004803603810190808035906020019092919050505061056c565b604051808573ffffffffffffffffffffffffffffffffffffffff1673ffffffffffffffffffffffffffffffffffffffff16815260200184815260200183815260200182815260200194505050505060405180910390f35b34801561018057600080fd5b50610189610625565b6040518082815260200191505060405180910390f35b3480156101ab57600080fd5b506101ca60048036038101908080359060200190929190505050610632565b604051808573ffffffffffffffffffffffffffffffffffffffff1673ffffffffffffffffffffffffffffffffffffffff16815260200184815260200183815260200182815260200194505050505060405180910390f35b34801561022d57600080fd5b50610260600480360381019080803590602001909291908035906020019092919080359060200190929190505050610691565b604051808215151515815260200191505060405180910390f35b34801561028657600080fd5b5061028f610793565b6040518082815260200191505060405180910390f35b3480156102b157600080fd5b506102d06004803603810190808035906020019092919050505061079f565b604051808573ffffffffffffffffffffffffffffffffffffffff1673ffffffffffffffffffffffffffffffffffffffff16815260200184815260200183815260200182815260200194505050505060405180910390f35b34801561033357600080fd5b5061035260048036038101908080359060200190929190505050610858565b604051808573ffffffffffffffffffffffffffffffffffffffff1673ffffffffffffffffffffffffffffffffffffffff16815260200184815260200183815260200182815260200194505050505060405180910390f35b3480156103b557600080fd5b506103d4600480360381019080803590602001909291905050506108b7565b6040518082815260200191505060405180910390f35b6103f26109d8565b005b34801561040057600080fd5b506104336004803603810190808035906020019092919080359060200190929190803590602001909291905050506109da565b604051808215151515815260200191505060405180910390f35b6000806001805490508310151561046357610566565b8290505b600180805490500381101561054757600180820181548110151561048757fe5b90600052602060002090600402016001828154811015156104a457fe5b90600052602060002090600402016000820160009054906101000a900473ffffffffffffffffffffffffffffffffffffffff168160000160006101000a81548173ffffffffffffffffffffffffffffffffffffffff021916908373ffffffffffffffffffffffffffffffffffffffff1602179055506001820154816001015560028201548160020155600382015481600301559050508080600101915050610467565b600180548091906001900361055c9190610adc565b5060018054905091505b50919050565b60008060008060008581548110151561058157fe5b906000526020600020906004020160000160009054906101000a900473ffffffffffffffffffffffffffffffffffffffff166000868154811015156105c257fe5b9060005260206000209060040201600101546000878154811015156105e357fe5b90600052602060002090600402016002015460008881548110151561060457fe5b90600052602060002090600402016003015493509350935093509193509193565b6000600180549050905090565b60018181548110151561064157fe5b90600052602060002090600402016000915090508060000160009054906101000a900473ffffffffffffffffffffffffffffffffffffffff16908060010154908060020154908060030154905084565b600061069b610b0e565b33816000019073ffffffffffffffffffffffffffffffffffffffff16908173ffffffffffffffffffffffffffffffffffffffff16815250508481602001818152505083816040018181525050828160600181815250506000819080600181540180825580915050906001820390600052602060002090600402016000909192909190915060008201518160000160006101000a81548173ffffffffffffffffffffffffffffffffffffffff021916908373ffffffffffffffffffffffffffffffffffffffff16021790555060208201518160010155604082015181600201556060820151816003015550505060019150509392505050565b60008080549050905090565b6000806000806001858154811015156107b457fe5b906000526020600020906004020160000160009054906101000a900473ffffffffffffffffffffffffffffffffffffffff166001868154811015156107f557fe5b90600052602060002090600402016001015460018781548110151561081657fe5b90600052602060002090600402016002015460018881548110151561083757fe5b90600052602060002090600402016003015493509350935093509193509193565b60008181548110151561086757fe5b90600052602060002090600402016000915090508060000160009054906101000a900473ffffffffffffffffffffffffffffffffffffffff16908060010154908060020154908060030154905084565b600080600080549050831015156108cd576109d2565b8290505b6001600080549050038110156109b3576000600182018154811015156108f357fe5b906000526020600020906004020160008281548110151561091057fe5b90600052602060002090600402016000820160009054906101000a900473ffffffffffffffffffffffffffffffffffffffff168160000160006101000a81548173ffffffffffffffffffffffffffffffffffffffff021916908373ffffffffffffffffffffffffffffffffffffffff16021790555060018201548160010155600282015481600201556003820154816003015590505080806001019150506108d1565b60008054809190600190036109c89190610adc565b5060008054905091505b50919050565b565b60006109e4610b0e565b33816000019073ffffffffffffffffffffffffffffffffffffffff16908173ffffffffffffffffffffffffffffffffffffffff16815250508481602001818152505083816040018181525050828160600181815250506001819080600181540180825580915050906001820390600052602060002090600402016000909192909190915060008201518160000160006101000a81548173ffffffffffffffffffffffffffffffffffffffff021916908373ffffffffffffffffffffffffffffffffffffffff16021790555060208201518160010155604082015181600201556060820151816003015550505060019150509392505050565b815481835581811115610b0957600402816004028360005260206000209182019101610b089190610b4d565b5b505050565b608060405190810160405280600073ffffffffffffffffffffffffffffffffffffffff1681526020016000815260200160008152602001600081525090565b610ba891905b80821115610ba457600080820160006101000a81549073ffffffffffffffffffffffffffffffffffffffff021916905560018201600090556002820160009055600382016000905550600401610b53565b5090565b905600a165627a7a72305820d8c28a1a3bcb0de8a783296c8cba20ad0c4fb8b7dcc9a04af93e51e72ac361620029",
  "source": "pragma solidity ^0.4.17;\r\n\r\ncontract Exchange {\r\n\r\n    struct Bid {\r\n        address owner;\r\n        uint price;\r\n        uint amount;\r\n        uint date;\r\n    }\r\n    \r\n    Bid[] public Bids;\r\n    Bid[] public Asks;\r\n\r\n    constructor() public payable{}\r\n    \r\n    function deposit() public payable {\r\n    }\r\n\r\n    function () public payable{}\r\n\r\n    function getBid(uint index) public returns(address, uint, uint, uint){\r\n        return (Bids[index].owner, Bids[index].price, Bids[index].amount, Bids[index].date);\r\n    }\r\n\r\n    function getAsk(uint index) public  returns(address, uint, uint, uint){\r\n        return (Asks[index].owner, Asks[index].price, Asks[index].amount, Asks[index].date);\r\n    }\r\n\r\n\r\n    function placeBid(uint _price, uint _amount, uint timestamp) public returns (bool) {\r\n        Bid memory b;\r\n        b.owner = msg.sender;\r\n        b.price = _price;\r\n        b.amount = _amount;\r\n        b.date = timestamp;\r\n\r\n        Bids.push(b);\r\n        return true;\r\n    }\r\n\r\n    function placeAsk(uint _price, uint _amount, uint timestamp) public returns (bool) {\r\n        Bid memory a;\r\n        a.owner = msg.sender;\r\n        a.price = _price;\r\n        a.amount = _amount;\r\n        a.date = timestamp;\r\n\r\n        Asks.push(a);\r\n        return true;\r\n    }\r\n    \r\n\r\n    function removeBid(uint index) public returns(uint){\r\n        if (index >= Bids.length) return;\r\n        \r\n        for (uint i = index; i<Bids.length-1; i++){\r\n            Bids[i] = Bids[i+1];\r\n        }\r\n        Bids.length--;\r\n        return Bids.length;\r\n    }\r\n\r\n    function removeAsk(uint index) public returns(uint) {\r\n        if (index >= Asks.length) return;\r\n        \r\n        for (uint i = index; i<Asks.length-1; i++){\r\n            Asks[i] = Asks[i+1];\r\n        }\r\n        Asks.length--;\r\n        return Asks.length;\r\n    }\r\n\r\n    function getBidsCount() public view returns(uint) {\r\n        return Bids.length;\r\n    }\r\n    \r\n    function getAsksCount() public view returns(uint) {\r\n        return Asks.length;\r\n    }\r\n}",
  "sourcePath": "D:\\Utilisateurs\\GUILHERME\\Documents\\Project Code\\microgrid\\contracts\\ContractsUniformPrice.sol",
  "compiler": {
    "name": "solc",
    "version": "0.4.24+commit.e67f0147.Emscripten.clang"
  },
  "schemaVersion": "2.0.1",
  "updatedAt": "2019-11-30T16:19:42.954Z"
}