{
  "contractName": "HouseholdFactory",
  "abi": [
    {
      "constant": true,
      "inputs": [],
      "name": "owner",
      "outputs": [
        {
          "name": "",
          "type": "address"
        }
      ],
      "payable": false,
      "stateMutability": "view",
      "type": "function"
    },
    {
      "constant": true,
      "inputs": [
        {
          "name": "",
          "type": "uint256"
        }
      ],
      "name": "deployedHouseholds",
      "outputs": [
        {
          "name": "",
          "type": "address"
        }
      ],
      "payable": false,
      "stateMutability": "view",
      "type": "function"
    },
    {
      "inputs": [],
      "payable": false,
      "stateMutability": "nonpayable",
      "type": "constructor"
    },
    {
      "constant": false,
      "inputs": [
        {
          "name": "capacity",
          "type": "uint256"
        }
      ],
      "name": "createHousehold",
      "outputs": [],
      "payable": false,
      "stateMutability": "nonpayable",
      "type": "function"
    },
    {
      "constant": true,
      "inputs": [],
      "name": "getDeployedHouseholds",
      "outputs": [
        {
          "name": "",
          "type": "address[]"
        }
      ],
      "payable": false,
      "stateMutability": "view",
      "type": "function"
    }
  ],
  "bytecode": "0x608060405234801561001057600080fd5b5030600160006101000a81548173ffffffffffffffffffffffffffffffffffffffff021916908373ffffffffffffffffffffffffffffffffffffffff160217905550611f55806100616000396000f300608060405260043610610062576000357c0100000000000000000000000000000000000000000000000000000000900463ffffffff1680631dd9a3bf146100675780633b6b87a0146100d35780638da5cb5b14610100578063ee95e19a14610157575b600080fd5b34801561007357600080fd5b5061007c6101c4565b6040518080602001828103825283818151815260200191508051906020019060200280838360005b838110156100bf5780820151818401526020810190506100a4565b505050509050019250505060405180910390f35b3480156100df57600080fd5b506100fe60048036038101908080359060200190929190505050610252565b005b34801561010c57600080fd5b5061011561037a565b604051808273ffffffffffffffffffffffffffffffffffffffff1673ffffffffffffffffffffffffffffffffffffffff16815260200191505060405180910390f35b34801561016357600080fd5b50610182600480360381019080803590602001909291905050506103a0565b604051808273ffffffffffffffffffffffffffffffffffffffff1673ffffffffffffffffffffffffffffffffffffffff16815260200191505060405180910390f35b6060600080548060200260200160405190810160405280929190818152602001828054801561024857602002820191906000526020600020905b8160009054906101000a900473ffffffffffffffffffffffffffffffffffffffff1673ffffffffffffffffffffffffffffffffffffffff16815260200190600101908083116101fe575b5050505050905090565b60008133600160009054906101000a900473ffffffffffffffffffffffffffffffffffffffff166102816103de565b808481526020018373ffffffffffffffffffffffffffffffffffffffff1673ffffffffffffffffffffffffffffffffffffffff1681526020018273ffffffffffffffffffffffffffffffffffffffff1673ffffffffffffffffffffffffffffffffffffffff1681526020019350505050604051809103906000f08015801561030d573d6000803e3d6000fd5b50905060008190806001815401808255809150509060018203906000526020600020016000909192909190916101000a81548173ffffffffffffffffffffffffffffffffffffffff021916908373ffffffffffffffffffffffffffffffffffffffff160217905550505050565b600160009054906101000a900473ffffffffffffffffffffffffffffffffffffffff1681565b6000818154811015156103af57fe5b906000526020600020016000915054906101000a900473ffffffffffffffffffffffffffffffffffffffff1681565b604051611b3b806103ef8339019056006080604052604051606080611b3b83398101806040528101908080519060200190929190805190602001909291908051906020019092919050505081600860006101000a81548173ffffffffffffffffffffffffffffffffffffffff021916908373ffffffffffffffffffffffffffffffffffffffff160217905550826002819055508260038190555080600a60006101000a81548173ffffffffffffffffffffffffffffffffffffffff021916908373ffffffffffffffffffffffffffffffffffffffff16021790555030600960006101000a81548173ffffffffffffffffffffffffffffffffffffffff021916908373ffffffffffffffffffffffffffffffffffffffff160217905550505050611a1e8061011d6000396000f300608060405260043610610180576000357c0100000000000000000000000000000000000000000000000000000000900463ffffffff16806304c5b82c146101825780630f59986e146101ad578063322a5e5f146101d85780633c889e6f14610203578063416f222a1461028557806354290065146102de57806359c8d347146103095780635d5e26841461038b57806360f96a8f146103b857806361cc85581461040f57806363505ae81461043c57806367b1f5df146104675780636b42fbaf146104aa57806374cd0c401461052c578063771282f6146105ae5780638bebfca9146105d95780638da5cb5b146106065780639cd016051461065d5780639e6e2e55146106b4578063ab1e811c146106df578063b20ebddb14610761578063bbc0c8731461078c578063be0cadd6146107e5578063d0e30db014610826578063d8bdf17814610830578063e42a6f89146108b2578063e457e1e51461092c578063e6a7e3a314610959578063eaf54c93146109c5578063f6b4dfb4146109f0575b005b34801561018e57600080fd5b50610197610a47565b6040518082815260200191505060405180910390f35b3480156101b957600080fd5b506101c2610a4d565b6040518082815260200191505060405180910390f35b3480156101e457600080fd5b506101ed610a53565b6040518082815260200191505060405180910390f35b34801561020f57600080fd5b5061022e60048036038101908080359060200190929190505050610a59565b604051808573ffffffffffffffffffffffffffffffffffffffff1673ffffffffffffffffffffffffffffffffffffffff16815260200184815260200183815260200182815260200194505050505060405180910390f35b34801561029157600080fd5b506102c4600480360381019080803590602001909291908035906020019092919080359060200190929190505050610b12565b604051808215151515815260200191505060405180910390f35b3480156102ea57600080fd5b506102f3610db3565b6040518082815260200191505060405180910390f35b34801561031557600080fd5b5061033460048036038101908080359060200190929190505050610dc0565b604051808573ffffffffffffffffffffffffffffffffffffffff1673ffffffffffffffffffffffffffffffffffffffff16815260200184815260200183815260200182815260200194505050505060405180910390f35b34801561039757600080fd5b506103b660048036038101908080359060200190929190505050610e1f565b005b3480156103c457600080fd5b506103cd610e4e565b604051808273ffffffffffffffffffffffffffffffffffffffff1673ffffffffffffffffffffffffffffffffffffffff16815260200191505060405180910390f35b34801561041b57600080fd5b5061043a60048036038101908080359060200190929190505050610e74565b005b34801561044857600080fd5b50610451610f83565b6040518082815260200191505060405180910390f35b34801561047357600080fd5b506104a8600480360381019080803573ffffffffffffffffffffffffffffffffffffffff169060200190929190505050610f90565b005b3480156104b657600080fd5b506104d560048036038101908080359060200190929190505050610fd4565b604051808573ffffffffffffffffffffffffffffffffffffffff1673ffffffffffffffffffffffffffffffffffffffff16815260200184815260200183815260200182815260200194505050505060405180910390f35b34801561053857600080fd5b506105576004803603810190808035906020019092919050505061108d565b604051808573ffffffffffffffffffffffffffffffffffffffff1673ffffffffffffffffffffffffffffffffffffffff16815260200184815260200183815260200182815260200194505050505060405180910390f35b3480156105ba57600080fd5b506105c36110ec565b6040518082815260200191505060405180910390f35b3480156105e557600080fd5b50610604600480360381019080803590602001909291905050506110f2565b005b34801561061257600080fd5b5061061b611201565b604051808273ffffffffffffffffffffffffffffffffffffffff1673ffffffffffffffffffffffffffffffffffffffff16815260200191505060405180910390f35b34801561066957600080fd5b50610672611227565b604051808273ffffffffffffffffffffffffffffffffffffffff1673ffffffffffffffffffffffffffffffffffffffff16815260200191505060405180910390f35b3480156106c057600080fd5b506106c961124d565b6040518082815260200191505060405180910390f35b3480156106eb57600080fd5b5061070a60048036038101908080359060200190929190505050611253565b604051808573ffffffffffffffffffffffffffffffffffffffff1673ffffffffffffffffffffffffffffffffffffffff16815260200184815260200183815260200182815260200194505050505060405180910390f35b34801561076d57600080fd5b5061077661130c565b6040518082815260200191505060405180910390f35b34801561079857600080fd5b506107cb600480360381019080803590602001909291908035906020019092919080359060200190929190505050611319565b604051808215151515815260200191505060405180910390f35b3480156107f157600080fd5b506108246004803603810190808035906020019092919080359060200190929190803590602001909291905050506115ba565b005b61082e6115d4565b005b34801561083c57600080fd5b5061085b600480360381019080803590602001909291905050506115d6565b604051808573ffffffffffffffffffffffffffffffffffffffff1673ffffffffffffffffffffffffffffffffffffffff16815260200184815260200183815260200182815260200194505050505060405180910390f35b3480156108be57600080fd5b506108c7611635565b604051808773ffffffffffffffffffffffffffffffffffffffff1673ffffffffffffffffffffffffffffffffffffffff168152602001868152602001858152602001848152602001838152602001828152602001965050505050505060405180910390f35b34801561093857600080fd5b5061095760048036038101908080359060200190929190505050611684565b005b6109ab60048036038101908080359060200190929190803573ffffffffffffffffffffffffffffffffffffffff1690602001909291908035906020019092919080359060200190929190505050611711565b604051808215151515815260200191505060405180910390f35b3480156109d157600080fd5b506109da611948565b6040518082815260200191505060405180910390f35b3480156109fc57600080fd5b50610a0561194e565b604051808273ffffffffffffffffffffffffffffffffffffffff1673ffffffffffffffffffffffffffffffffffffffff16815260200191505060405180910390f35b60025481565b60045481565b600c5481565b600080600080600585815481101515610a6e57fe5b906000526020600020906004020160000160009054906101000a900473ffffffffffffffffffffffffffffffffffffffff16600586815481101515610aaf57fe5b906000526020600020906004020160010154600587815481101515610ad057fe5b906000526020600020906004020160020154600588815481101515610af157fe5b90600052602060002090600402016003015493509350935093509193509193565b6000610b1c611974565b600860009054906101000a900473ffffffffffffffffffffffffffffffffffffffff1673ffffffffffffffffffffffffffffffffffffffff163373ffffffffffffffffffffffffffffffffffffffff16141515610b7857600080fd5b608060405190810160405280600960009054906101000a900473ffffffffffffffffffffffffffffffffffffffff1673ffffffffffffffffffffffffffffffffffffffff1681526020018681526020018581526020018481525090506005819080600181540180825580915050906001820390600052602060002090600402016000909192909190915060008201518160000160006101000a81548173ffffffffffffffffffffffffffffffffffffffff021916908373ffffffffffffffffffffffffffffffffffffffff160217905550602082015181600101556040820151816002015560608201518160030155505050600b60009054906101000a900473ffffffffffffffffffffffffffffffffffffffff16600d60006101000a81548173ffffffffffffffffffffffffffffffffffffffff021916908373ffffffffffffffffffffffffffffffffffffffff160217905550600d60009054906101000a900473ffffffffffffffffffffffffffffffffffffffff1673ffffffffffffffffffffffffffffffffffffffff16635e62be258686866040518463ffffffff167c0100000000000000000000000000000000000000000000000000000000028152600401808481526020018381526020018281526020019350505050602060405180830381600087803b158015610d6e57600080fd5b505af1158015610d82573d6000803e3d6000fd5b505050506040513d6020811015610d9857600080fd5b81019080805190602001909291905050509150509392505050565b6000600680549050905090565b600681815481101515610dcf57fe5b90600052602060002090600402016000915090508060000160009054906101000a900473ffffffffffffffffffffffffffffffffffffffff16908060010154908060020154908060030154905084565b60008160035403111515610e3a576000600381905550610e4b565b806003600082825403925050819055505b50565b600a60009054906101000a900473ffffffffffffffffffffffffffffffffffffffff1681565b600b60009054906101000a900473ffffffffffffffffffffffffffffffffffffffff16600d60006101000a81548173ffffffffffffffffffffffffffffffffffffffff021916908373ffffffffffffffffffffffffffffffffffffffff160217905550600d60009054906101000a900473ffffffffffffffffffffffffffffffffffffffff1673ffffffffffffffffffffffffffffffffffffffff166328220f35826040518263ffffffff167c010000000000000000000000000000000000000000000000000000000002815260040180828152602001915050600060405180830381600087803b158015610f6857600080fd5b505af1158015610f7c573d6000803e3d6000fd5b5050505050565b6000600580549050905090565b80600b60006101000a81548173ffffffffffffffffffffffffffffffffffffffff021916908373ffffffffffffffffffffffffffffffffffffffff16021790555050565b600080600080600685815481101515610fe957fe5b906000526020600020906004020160000160009054906101000a900473ffffffffffffffffffffffffffffffffffffffff1660068681548110151561102a57fe5b90600052602060002090600402016001015460068781548110151561104b57fe5b90600052602060002090600402016002015460068881548110151561106c57fe5b90600052602060002090600402016003015493509350935093509193509193565b60058181548110151561109c57fe5b90600052602060002090600402016000915090508060000160009054906101000a900473ffffffffffffffffffffffffffffffffffffffff16908060010154908060020154908060030154905084565b60015481565b600b60009054906101000a900473ffffffffffffffffffffffffffffffffffffffff16600d60006101000a81548173ffffffffffffffffffffffffffffffffffffffff021916908373ffffffffffffffffffffffffffffffffffffffff160217905550600d60009054906101000a900473ffffffffffffffffffffffffffffffffffffffff1673ffffffffffffffffffffffffffffffffffffffff1663b320f459826040518263ffffffff167c010000000000000000000000000000000000000000000000000000000002815260040180828152602001915050600060405180830381600087803b1580156111e657600080fd5b505af11580156111fa573d6000803e3d6000fd5b5050505050565b600860009054906101000a900473ffffffffffffffffffffffffffffffffffffffff1681565b600b60009054906101000a900473ffffffffffffffffffffffffffffffffffffffff1681565b60005481565b60008060008060078581548110151561126857fe5b906000526020600020906004020160000160009054906101000a900473ffffffffffffffffffffffffffffffffffffffff166007868154811015156112a957fe5b9060005260206000209060040201600101546007878154811015156112ca57fe5b9060005260206000209060040201600201546007888154811015156112eb57fe5b90600052602060002090600402016003015493509350935093509193509193565b6000600780549050905090565b6000611323611974565b600860009054906101000a900473ffffffffffffffffffffffffffffffffffffffff1673ffffffffffffffffffffffffffffffffffffffff163373ffffffffffffffffffffffffffffffffffffffff1614151561137f57600080fd5b608060405190810160405280600960009054906101000a900473ffffffffffffffffffffffffffffffffffffffff1673ffffffffffffffffffffffffffffffffffffffff1681526020018681526020018581526020018481525090506006819080600181540180825580915050906001820390600052602060002090600402016000909192909190915060008201518160000160006101000a81548173ffffffffffffffffffffffffffffffffffffffff021916908373ffffffffffffffffffffffffffffffffffffffff160217905550602082015181600101556040820151816002015560608201518160030155505050600b60009054906101000a900473ffffffffffffffffffffffffffffffffffffffff16600d60006101000a81548173ffffffffffffffffffffffffffffffffffffffff021916908373ffffffffffffffffffffffffffffffffffffffff160217905550600d60009054906101000a900473ffffffffffffffffffffffffffffffffffffffff1673ffffffffffffffffffffffffffffffffffffffff1663f0e320f28686866040518463ffffffff167c0100000000000000000000000000000000000000000000000000000000028152600401808481526020018381526020018281526020019350505050602060405180830381600087803b15801561157557600080fd5b505af1158015611589573d6000803e3d6000fd5b505050506040513d602081101561159f57600080fd5b81019080805190602001909291905050509150509392505050565b826000819055508160018190555080600481905550505050565b565b6007818154811015156115e557fe5b90600052602060002090600402016000915090508060000160009054906101000a900473ffffffffffffffffffffffffffffffffffffffff16908060010154908060020154908060030154905084565b600080600080600080600860009054906101000a900473ffffffffffffffffffffffffffffffffffffffff16600054600154600254600354600454955095509550955095509550909192939495565b600860009054906101000a900473ffffffffffffffffffffffffffffffffffffffff1673ffffffffffffffffffffffffffffffffffffffff163373ffffffffffffffffffffffffffffffffffffffff161415156116e057600080fd5b60025481600354011015156116fd5760025460038190555061170e565b806003600082825401925050819055505b50565b600061171b6119b3565b6080604051908101604052808673ffffffffffffffffffffffffffffffffffffffff1681526020018581526020018781526020018481525090508560036000828254019250508190555084600e60006101000a81548173ffffffffffffffffffffffffffffffffffffffff021916908373ffffffffffffffffffffffffffffffffffffffff160217905550600e60009054906101000a900473ffffffffffffffffffffffffffffffffffffffff1673ffffffffffffffffffffffffffffffffffffffff16635d5e2684876040518263ffffffff167c010000000000000000000000000000000000000000000000000000000002815260040180828152602001915050600060405180830381600087803b15801561183757600080fd5b505af115801561184b573d6000803e3d6000fd5b505050508473ffffffffffffffffffffffffffffffffffffffff166108fc856103e88981151561187757fe5b04029081150290604051600060405180830381858888f193505050501580156118a4573d6000803e3d6000fd5b506007819080600181540180825580915050906001820390600052602060002090600402016000909192909190915060008201518160000160006101000a81548173ffffffffffffffffffffffffffffffffffffffff021916908373ffffffffffffffffffffffffffffffffffffffff1602179055506020820151816001015560408201518160020155606082015181600301555050506001915050949350505050565b60035481565b600960009054906101000a900473ffffffffffffffffffffffffffffffffffffffff1681565b608060405190810160405280600073ffffffffffffffffffffffffffffffffffffffff1681526020016000815260200160008152602001600081525090565b608060405190810160405280600073ffffffffffffffffffffffffffffffffffffffff16815260200160008152602001600081526020016000815250905600a165627a7a723058202a81720848ece2bfb892ee193d94454fe4d45112baa6d9f9ad8921b50cc8cb1d0029a165627a7a723058208c3f52dc9c79a762bf28ab182bbfdaede07f78b2d8100e3f52a5229a89e591c20029",
  "source": "pragma solidity ^0.4.17;\r\n\r\ncontract HouseholdFactory{\r\n    address[] public deployedHouseholds;\r\n    address public owner;\r\n    \r\n    constructor() public{\r\n        owner = address(this);\r\n    }\r\n    \r\n    function createHousehold(uint capacity ) public{\r\n        address newHousehold = new Household(capacity, msg.sender, owner);\r\n        deployedHouseholds.push(newHousehold);\r\n    }\r\n    \r\n    function getDeployedHouseholds() public view returns (address[]) {\r\n        return deployedHouseholds;\r\n    }\r\n}\r\n\r\ncontract Household{\r\n    \r\n    uint public currentDemand;\r\n    uint public currentSupply;\r\n    uint public batteryCapacity;\r\n    uint public amountOfCharge;\r\n    uint public excessEnergy;\r\n    \r\n    struct Bid{\r\n        address origin;\r\n        uint price;\r\n        uint amount;\r\n        uint date;\r\n    }\r\n\r\n    struct BidSuccessful{\r\n        address recipient;\r\n        uint price;\r\n        uint amount;\r\n        uint date;\r\n    }\r\n    \r\n    Bid[] public Bids;\r\n    Bid[] public Asks;\r\n    BidSuccessful[] public SuccessfulBids;\r\n    address public owner;\r\n    address public contractAddress;\r\n    address public parent;\r\n    address public exchangeAddress;\r\n    uint public balanceContract;\r\n    Exchange ex;\r\n    Household hh;\r\n    \r\n    \r\n    constructor(uint capacity, address creator, address watch_address) public payable{\r\n        owner = creator;\r\n        batteryCapacity = capacity;\r\n        amountOfCharge = capacity;\r\n        parent = watch_address;\r\n        contractAddress = address(this);\r\n    }\r\n    \r\n    function deposit() public payable {\r\n    }\r\n\r\n    function () public payable {}\r\n\r\n    function setSmartMeterDetails(uint _demand, uint _supply, uint _excessEnergy) public {\r\n        currentDemand = _demand;\r\n        currentSupply = _supply;\r\n        excessEnergy = _excessEnergy;\r\n    }\r\n\r\n    function getSmartMeterDetails() public view returns(address, uint, uint, uint, uint, uint){\r\n        return(\r\n            owner,\r\n            currentDemand,\r\n            currentSupply,\r\n            batteryCapacity,\r\n            amountOfCharge,\r\n            excessEnergy\r\n        );\r\n    }\r\n\r\n    \r\n    function getBid(uint index) public view returns(address, uint, uint, uint){\r\n        return (Bids[index].origin,\r\n                Bids[index].price,\r\n                Bids[index].amount,\r\n                Bids[index].date\r\n        );\r\n    }\r\n\r\n    function getAsk(uint index) public view returns(address, uint, uint, uint){\r\n        return (Asks[index].origin,\r\n                Asks[index].price,\r\n                Asks[index].amount,\r\n                Asks[index].date\r\n        );\r\n    }\r\n\r\n    function getSuccessfulBid(uint index) public view returns(address, uint, uint, uint){\r\n        return (SuccessfulBids[index].recipient,\r\n                SuccessfulBids[index].price,\r\n                SuccessfulBids[index].amount,\r\n                SuccessfulBids[index].date\r\n        );\r\n    }\r\n\r\n    function getSuccessfulBidCount() public view returns(uint) {\r\n        return SuccessfulBids.length;\r\n    }\r\n\r\n    function setExchange(address exchange) public {\r\n        exchangeAddress = exchange;\r\n    }\r\n    \r\n    function charge(uint amount) public restricted{\r\n        if(amountOfCharge + amount >= batteryCapacity) {\r\n            amountOfCharge = batteryCapacity;\r\n        }\r\n        else{\r\n            amountOfCharge += amount;\r\n        }\r\n        \r\n    }\r\n    \r\n    function discharge(uint amount) public {\r\n        if(amountOfCharge - amount <= 0) {\r\n            amountOfCharge = 0;\r\n        }\r\n        else{\r\n            amountOfCharge -= amount;\r\n        }\r\n    }\r\n    \r\n    function submitBid(uint price, uint amount, uint timestamp) public restricted returns (bool){\r\n        Bid memory newBid = Bid({\r\n            origin: contractAddress,\r\n            price: price,\r\n            amount: amount,\r\n            date: timestamp\r\n        });\r\n        \r\n        Bids.push(newBid);\r\n        ex = Exchange(exchangeAddress);\r\n        return ex.placeBid(price, amount, timestamp);\r\n        \r\n    }\r\n    \r\n    function submitAsk(uint price, uint amount, uint timestamp) public restricted returns(bool) {\r\n        Bid memory newAsk = Bid({\r\n            origin: contractAddress,\r\n            price: price,\r\n            amount: amount,\r\n            date: timestamp\r\n        });\r\n        \r\n        Asks.push(newAsk);\r\n        ex = Exchange(exchangeAddress);\r\n        return ex.placeAsk(price, amount, timestamp);\r\n    }\r\n\r\n    function buyEnergy(uint _amount, address _recipient, uint _price, uint _date ) public payable returns(bool successful){\r\n        BidSuccessful memory newBid = BidSuccessful({\r\n            recipient: _recipient,\r\n            price: _price,\r\n            amount: _amount,\r\n            date: _date\r\n        });\r\n\r\n        amountOfCharge += _amount;\r\n\r\n        hh = Household(_recipient);\r\n        hh.discharge(_amount);\r\n\r\n\r\n        _recipient.transfer( (_amount/1000)*_price);\r\n       \r\n        SuccessfulBids.push(newBid);\r\n        \r\n        return true;\r\n    }\r\n\r\n    function deleteBid(uint bid_index) public {\r\n        ex = Exchange(exchangeAddress);\r\n        ex.removeBid(bid_index);\r\n    }\r\n\r\n    function deleteAsk(uint ask_index) public {\r\n        ex = Exchange(exchangeAddress);\r\n        ex.removeAsk(ask_index);\r\n    }\r\n\r\n    function getBidsCount() public view returns(uint) {\r\n        return Bids.length;\r\n    }\r\n    \r\n    function getAsksCount() public view returns(uint) {\r\n        return Asks.length;\r\n    }\r\n\r\n    modifier restricted() {\r\n        require(msg.sender == owner);\r\n        _;\r\n    }\r\n    \r\n}\r\n\r\ncontract Exchange {\r\n\r\n    struct Bid {\r\n        address owner;\r\n        uint price;\r\n        uint amount;\r\n        uint date;\r\n    }\r\n\r\n    struct Ask {\r\n        address owner;\r\n        uint price;\r\n        uint amount;\r\n        uint date;\r\n    }\r\n\r\n    Bid[] public Bids;\r\n    Ask[] public Asks;\r\n    Household hh;\r\n\r\n    constructor() public payable{}\r\n    \r\n    function deposit() public payable {\r\n    }\r\n\r\n    function () public payable{}\r\n\r\n    function getBid(uint index) public returns(address, uint, uint, uint){\r\n        return (Bids[index].owner, Bids[index].price, Bids[index].amount, Bids[index].date);\r\n    }\r\n\r\n    function getAsk(uint index) public  returns(address, uint, uint, uint){\r\n        return (Asks[index].owner, Asks[index].price, Asks[index].amount, Asks[index].date);\r\n    }\r\n\r\n\r\n    function placeBid(uint _price, uint _amount, uint timestamp) public returns (bool) {\r\n        Bid memory b;\r\n        b.owner = msg.sender;\r\n        b.price = _price;\r\n        b.amount = _amount;\r\n        b.date = timestamp;\r\n\r\n        for(uint i = 0; i < Bids.length; i++) {\r\n            if(Bids[i].price > _price) {\r\n                Bid[] memory tempBids = new Bid[](Bids.length - i);\r\n                for(uint j = i; j < Bids.length; j++) {\r\n                    tempBids[j-i] = Bids[j];\r\n                }\r\n                Bids[i] = b;\r\n                Bids.length = Bids.length + 1;\r\n                for(uint k = 0; k < tempBids.length; k++) {\r\n                    Bids[i+k+1] = tempBids[k];\r\n                }\r\n                \r\n                if(Asks.length>0){\r\n                    matchBid(Bids.length-1 ,Asks.length-1 );\r\n                }\r\n                return true;\r\n            }\r\n        }\r\n\r\n        Bids.push(b);\r\n        if(Asks.length>0){\r\n            \r\n            matchBid(Bids.length-1 ,Asks.length-1 );\r\n            \r\n        }\r\n        return true;\r\n    }\r\n\r\n    function placeAsk(uint _price, uint _amount, uint timestamp) public returns (bool) {\r\n        Ask memory a;\r\n        a.owner = msg.sender;\r\n        a.price = _price;\r\n        a.amount = _amount;\r\n        a.date = timestamp;\r\n\r\n\r\n        for (uint i = 0; i < Asks.length; i ++) {\r\n            if(Asks[i].price < _price) {\r\n                Ask[] memory tempAsks = new Ask[](Asks.length - i);\r\n                for (uint j = i; j < Asks.length; j++) {\r\n                    tempAsks[j-i] = Asks[j];\r\n                }\r\n                Asks[i] = a;\r\n                Asks.length = Asks.length + 1;\r\n                for (uint k = 0; k < tempAsks.length; k++) {\r\n                    Asks[i+k+1] = tempAsks[k];\r\n                }\r\n              \r\n                if (Bids.length>0){\r\n                    matchBid(Bids.length-1,Asks.length-1 );\r\n                }\r\n                return true;\r\n            }\r\n        }\r\n        Asks.push(a);\r\n        if(Bids.length > 0) {\r\n            matchBid(Bids.length-1,Asks.length-1 );\r\n        }\r\n        return true;\r\n    }\r\n    \r\n    function matchBid(uint bid_index, uint ask_index) public returns (bool) {\r\n        if (Bids.length == 0 || Asks.length == 0 || Bids[bid_index].price < Asks[ask_index].price) {\r\n            return true;\r\n        }\r\n\r\n        hh = Household(Bids[bid_index].owner);\r\n        \r\n        uint price = (Asks[ask_index].price + Bids[bid_index].price) / 2;\r\n        //uint price = Bids[bid_index].price;\r\n\r\n        if(int(Bids[bid_index].amount - Asks[ask_index].amount) >= 0){\r\n            uint remainder = Bids[bid_index].amount - Asks[ask_index].amount;\r\n            uint calcAmount = Bids[bid_index].amount - remainder;\r\n            \r\n            hh.buyEnergy(calcAmount, Asks[ask_index].owner, price, Bids[bid_index].date);\r\n\r\n            Bids[bid_index].amount = remainder;\r\n            if(remainder==0){\r\n                removeBid(bid_index);\r\n            }\r\n            removeAsk(ask_index);\r\n            \r\n            return (matchBid(Bids.length-1,Asks.length-1));\r\n        }\r\n        \r\n        if(int(Bids[bid_index].amount - Asks[ask_index].amount) < 0){\r\n            remainder = Asks[ask_index].amount - Bids[bid_index].amount;\r\n            calcAmount = Asks[ask_index].amount - remainder;\r\n            \r\n            hh.buyEnergy(calcAmount, Asks[ask_index].owner, price, Bids[bid_index].date);\r\n\r\n            Asks[ask_index].amount = remainder;\r\n            if(remainder == 0){\r\n                removeAsk(ask_index);\r\n            }\r\n            removeBid(bid_index);\r\n            \r\n            return (matchBid(Bids.length-1,Asks.length-1)); \r\n        }\r\n    }\r\n\r\n    function removeBid(uint index) public {\r\n        if (index >= Bids.length) return;\r\n        \r\n        for (uint i = index; i<Bids.length-1; i++){\r\n            Bids[i] = Bids[i+1];\r\n        }\r\n        Bids.length--;\r\n    }\r\n\r\n    function removeAsk(uint index) public {\r\n        if (index >= Asks.length) return;\r\n        \r\n        for (uint i = index; i<Asks.length-1; i++){\r\n            Asks[i] = Asks[i+1];\r\n        }\r\n        Asks.length--;\r\n    }\r\n\r\n    function getBidsCount() public view returns(uint) {\r\n        return Bids.length;\r\n    }\r\n    \r\n    function getAsksCount() public view returns(uint) {\r\n        return Asks.length;\r\n    }\r\n}",
  "sourcePath": "D:\\Utilisateurs\\GUILHERME\\Documents\\Project Code\\microgrid\\contracts\\ContractsDoubleAuction.sol",
  "compiler": {
    "name": "solc",
    "version": "0.4.24+commit.e67f0147.Emscripten.clang"
  },
  "schemaVersion": "2.0.1",
  "updatedAt": "2019-11-30T16:19:42.964Z"
}